:100000000C9457000C947F000C947F000C947F009C
:100010000C947F000C947F000C947F000C947F0064
:100020000C94FA040C947F000C947F000C947F00D5
:100030000C947F000C947F000C947F000C947F0044
:100040000C947F000C947F000C947F000C947F0034
:100050000C947F000C947F000C947F000C947F0024
:100060000C945E050C940F060C947F000C947F009A
:100070000C947F000C947F000C947F000101000021
:100080000001010100010000040506070302010050
:100090000102030000000000010101010000000056
:1000A000102040800804020102040801F70711240F
:1000B0001FBECFEFCDBFDFE3DEBF1CE3A0E0BCE39C
:1000C000E4E4F1E102C005900D92AE30B107D9F73A
:1000D0002CE3AEE0BCE301C01D92AF39B207E1F7FB
:1000E00010E0C7E5D0E004C02197FE010E947E0821
:1000F000C635D107C9F70E94CF060C948B080C9423
:10010000000090E0FC01E056FF4F24912F3F11F1D9
:10011000FC01EC56FF4FA49130E2A39FD0011124C3
:10012000BC5F6130710519F411962C930895FC01A0
:10013000E857FF4FE491EF3F71F0CD014096E80F93
:10014000F92FF11D9FB7F89412962C938081886047
:1001500080839FBF0895F0E0E0E0F4CF90E0FC01E1
:10016000E458FF4F24912223C1F088579F4FFC0190
:100170008491213091F4833008F08F5F4091010A1F
:1001800021E030E0B90102C0660F771F8A95E2F7DF
:10019000CB01809584238093010A0895FF920F93E9
:1001A0001F93CF93DF93C82FD0E0FE01E056FF4F9F
:1001B000F4909FEFF91699F08B010E94AE00FE01BA
:1001C000EC56FF4FA49180E2A89FD0011124BC5FA0
:1001D0008C918F2169F0012B41F41696FC92DF91EE
:1001E000CF911F910F91FF9008951596FC92F7CF34
:1001F000FE01E857FF4FE491109779F0EF3F69F067
:100200005096EA0FFB2FF11D9FB7F8948081012BC8
:1002100039F4877F80839FBFE2CFF0E0E0E0F4CF46
:100220008860F8CF909102069F7C9093020690918F
:10023000A0009F789093A000803131F48091020655
:100240008061809302060895853070F490910206D3
:10025000909302062091A00030E1839FC0011124F9
:10026000822B8093A000089580910206809302065D
:100270008091A000F6CFCF93DF938FB7F8942091B1
:100280009B3C30919C3C40919D3C50919E3CE09128
:10029000200A90910B0A90FD18C0E0958FBFA091A5
:1002A000993CB0919A3CC091973CD091983C0E9467
:1002B0007308EC9F9001ED9F300D1124620F731FA6
:1002C000811D911DDF91CF9108952F5F3F4F4F4FBB
:1002D0005F4FE091200AE1CF8F929F92AF92BF9241
:1002E000CF92DF92EF92FF924B015C010E943B01A3
:1002F0006B017C01A8EEB3E0A50194010E94730894
:10030000C60ED71EE81EF91EC616D706E806F90661
:1003100018F40E943B01F8CF0E943B016C157D054B
:100320008E059F05C8F3FF90EF90DF90CF90BF90B0
:10033000AF909F908F9008956093733C7093743C3E
:1003400008956093713C7093723C08950F9391E00F
:100350009093703C10926F3C60936D3C70936E3C38
:1003600040936C3C20936B3C10926A3C1092693C29
:100370000093683C880F8093673C23E030E044E0C2
:1003800050E080916C3C882341F02093653C309391
:10039000663C8091673C8E7F0BC080916B3C8823CC
:1003A00051F04093653C5093663C8091673C81607E
:1003B0008093170808C080916C3C811104C0809123
:1003C0006B3C882311F380916F3C8823E1F380918B
:1003D0006F3C8330B1F280916B3C882321F0809197
:1003E000693C0F91089590916F3C81E09130C9F77D
:1003F00080E0F7CFE0E1F8E091859066918722E018
:1004000030E02093653C3093663C8093573C1092DB
:10041000563C089581E08093563C1092573C93E0FF
:1004200090931A0890911B0891FF10C01092633CA2
:10043000E091543CF091553C09958093623C85E0F5
:1004400090E08093653C9093663C08951092643CE4
:100450008093613C86E090E0F4CFE091713CF091B4
:10046000723C309741F01092533C1092523C0995E7
:100470008091523C089580E00895E091733CF091A2
:10048000743C309759F03091513C2091503C3217D8
:1004900028F01092513C8093503C0994089508959F
:1004A000E091513C8091503CE81730F4F0E0E05D81
:1004B000F34C808190E008958FEF9FEF0895909125
:1004C000513C8091503C2FEF3FEF981748F4E92FB3
:1004D000F0E0E05DF34C208130E09F5F9093513C71
:1004E000C90108958091503C9091513C891B990B12
:1004F0000895CF92DF92EF92FF920F931F93CF93C5
:10050000DF937C018A01EB016B01C40ED51ECC1573
:10051000DD0551F06991D701ED91FC910190F081D9
:10052000E02DC7010995F3CFC801DF91CF911F914D
:100530000F91FF90EF90DF90CF9008952091523C63
:10054000203240F021E030E0FC012283338390E050
:1005500080E008958091533CE82FF0E0E05FF34C99
:1005600060838F5F8093533C8093523C81E090E0A6
:100570000895DC01ED91FC910688F789E02D61E09A
:1005800009940F938091653C9091663C0197A1F48A
:100590008091703C811112C0062F20E04091523CA6
:1005A00060E17CE380910F3C0E94A6011092533CD5
:1005B0001092523C0F91089580E0F8CF81E0F6CF81
:1005C00060930F3C1092533C1092523C0895DC0112
:1005D000ED91FC91028CF38DE02D21E009940F93B5
:1005E00080E39CE38093583C9093593C8091653C18
:1005F0009091663C0197C1F48091703C811116C0C6
:10060000FA014132510510F0E0E2F0E0022F862FAE
:100610002E2F40E070E060E00E94A6011092513C55
:100620008093503C0F91089580E0F8CF81E0F6CFA1
:100630008F929F92AF92BF92CF92DF92EF92FF92F2
:10064000CF93DF9340348DE0580783E0680771054E
:1006500008F44EC0411585E358078CE06807710522
:1006600008F43FC040385F446241710508F040C063
:10067000C8E7D0E020E432E44FE050E080900A3C4C
:1006800090900B3CA0900C3CB0900D3CC501B40187
:100690000E941C0869017A018AE0C81AD108E108A1
:1006A000F108DE01A50194010E94730820E03AECF4
:1006B0004AE95BE30E941C08C21AD30AE40AF50A5D
:1006C000F694E794D794C794C0921608DF91CF911F
:1006D000FF90EF90DF90CF90BF90AF909F908F9062
:1006E0000895CCE2D1E020E83AE146E050E0C6CF00
:1006F000C8EED3E020EA36E841E050E0BFCFE0E1C9
:10070000F8E01382168281E08583148611861092A8
:10071000653C1092663C08951092513C1092503CFA
:100720001092533C1092523C8091653C9091663CF3
:10073000892BD9F482E090E08093653C9093663CED
:100740001092643C1092633C1092563C1092573CBD
:1007500010920E3C1092613C660F60931C0881EE73
:100760008093190881E0809313088DE292E08093D2
:10077000543C9093553C80E19CE380935A3C909389
:100780005B3C8DE392E080935F3C9093603C80E320
:100790009CE380935C3C90935D3C80E280935E3C64
:1007A00008958F929F92AF92BF92CF92DF92EF9275
:1007B000FF921092513C1092503C1092533C109278
:1007C000523C8091653C9091663C892B09F04BC06E
:1007D00062E070E086E00E94810062E070E087E005
:1007E0000E94810081E090E08093653C9093663C9C
:1007F0001092693C10926A3C1092703C10926F3CCF
:1008000081EC8093130880900A3C90900B3CA09060
:100810000C3CB0900D3CC501B40120EA36E841E043
:1008200050E00E941C0869017A018AE0C81AD108C8
:10083000E108F108A8EEB3E0A50194010E94730855
:1008400020E03AEC4AE95BE30E941C08C21AD30A92
:10085000E40AF50AF694E794D794C794C092160870
:1008600081E080931508FF90EF90DF90CF90BF90CC
:10087000AF909F908F900895CF93E4EAF0E0C491F9
:1008800061E070E0CF3F91F084E00E94AE00E8E9C3
:10089000F0E0A49180E2A89FD0011124BC5F1896DB
:1008A000EC91EC2361E070E009F060E084E00E94EC
:1008B000CE004091083C5091093C60E07CE385E724
:1008C0009CE3CF910C94790285E79CE30E945F0240
:1008D0001092083C1092093C8330910509F45BC0EA
:1008E0000CF032C08130910509F439C08230910595
:1008F00009F444C02091083C3091093CE0E0FCE35D
:1009000090E080E0AF0140505C434217530708F08D
:1009100062C041919427092E0294402D4F704927BF
:10092000592F5025550F507E4527502D5927507F60
:100930005695092E000C551F9695969596959F7184
:1009400095279827842FDECF8430910581F1059774
:1009500009F0D0CF9091813C8091823C04C090916D
:10096000893C80918A3C9093003C22E030E02093C7
:10097000083C3093093C8093013CBCCF3091853CCE
:100980002091863C3093003C8093083C9093093C36
:100990002093013CAFCF82E08093003C82E090E066
:1009A0008093083C9093093C1092013CA3CF60E4F3
:1009B00071E980E09CE30E94840880E09CE3FC01F4
:1009C00001900020E9F7CF0181509C438093083CBF
:1009D0009093093C8FCFF901E050F44C8083F901EA
:1009E000EF5FF34C90832E5F3F4F2093083C309392
:1009F000093C08951F920F920FB60F9211242F9366
:100A00003F934F935F936F937F938F939F93AF9396
:100A1000BF934091933C5091943C6091953C709170
:100A2000963C8091913C9091923C20918F3C3091EA
:100A3000903C420F531F611D711D20918D3C3091E0
:100A40008E3C820F931F883E23E0920730F0885E31
:100A500093404F5F5F4F6F4F7F4F8093913C9093D8
:100A6000923C4093933C5093943C6093953C70939C
:100A7000963C80919B3C90919C3CA0919D3CB09178
:100A80009E3C0196A11DB11D80939B3C90939C3C84
:100A9000A0939D3CB0939E3C81E080930B0ABF9154
:100AA000AF919F918F917F916F915F914F913F9106
:100AB0002F910F900FBE0F901F9018951F920F92BD
:100AC0000FB60F9211242F933F934F935F936F9321
:100AD0007F938F939F93AF93BF93CF93EF93FF93A6
:100AE000C0911B08C2FF0AC01092643C1092633C84
:100AF0001092623C84E00E94FA0114C0C6FF2FC02D
:100B00008091613C813051F48091643CE0915F3C84
:100B1000F091603C90E009951092613CC0FF14C0D8
:100B20000E940A02FF91EF91CF91BF91AF919F91E7
:100B30008F917F916F915F914F913F912F910F9086
:100B40000FBE0F901F90189580E480931B0881E0E2
:100B50000E94FA0180911B0885FFE4CFE1CFC7FF17
:100B60005CC0C3FF08C01092643C1092633C1092BA
:100B7000623C83E0C0CF8091190880668093190899
:100B800080911B0881FF2CC08091633C882349F031
:100B900080911B0884FF05C082E080931A0881E0E1
:100BA000AACF9091633C8091623C9817A8F4E091A1
:100BB000633C80915A3C90915B3CE80FF92FF11D0A
:100BC000808180931D088091633C8F5F8093633C9C
:100BD00083E080931A08A6CF82E080931A088BCF17
:100BE0009091643C80915E3C981790F480911D0830
:100BF000E091643C20915C3C30915D3CE20FF32F2E
:100C0000F11D80838091643C8F5F8093643CE0CFD2
:100C100086E080931A0882E06ECF85E06CCF1F9249
:100C20000F920FB60F9211242F933F938F939F93A0
:100C3000EF93FF9380911508982F9C70E1F08091BD
:100C4000150894E082FF93E090936F3C8093150821
:100C500081E090E08093653C9093663C1092703CFC
:100C6000FF91EF919F918F913F912F910F900FBE28
:100C70000F901F90189586FF4EC020916C3C90916C
:100C80006B3C8091150884FF15C08091683C8823D7
:100C900079F083E08093140885E080936F3C109294
:100CA000703C81E090E08093653C9093663CD8CFA7
:100CB00081E0F0CF80916A3C821790F4E0916A3C29
:100CC00080916D3C90916E3CE80FF92FF11D808171
:100CD0008093180880916A3C8F5F80936A3CC0CFF4
:100CE0008091693C891760F484E090E08093653CD2
:100CF0009093663C8091673C816080931708B0CFE9
:100D00008091683C882329F083E08093140881E077
:100D1000C4CF81E0FACF87FF40C09091693C8091B9
:100D20006B3C9817D8F480911808E091693C2091A9
:100D3000583C3091593CE20FF32FF11D8083809194
:100D4000693C8F5F8093693C90916B3C8091693CDA
:100D50008917D8F482E08093140882CF8091683C90
:100D6000882389F087E08093140882E080936F3CA9
:100D70001092703C81E090E08093653C9093663CDB
:100D800010926B3C6DCF85E0EECF8091683C88235C
:100D900011F087E0BACF85E0B8CF86E07ECFC1E022
:100DA00088ED84BFC093610080E896E9A8E9B0E0CF
:100DB00080930A3C90930B3CA0930C3CB0930D3C69
:100DC0008091020685608093020680910006816012
:100DD0008093000680E10E94120110920002C093ED
:100DE000030A9FEF9093260A9093270A80E8809346
:100DF000280A80932A0A80932C0A8093290A8093D8
:100E00002B0A80932D0A2BE02093000A27E02093E1
:100E1000410A90934C0A80934D0A85E08093400AE2
:100E200086E696E08093993C90939A3C8091993C19
:100E300090919A3C6FEF70E00E9408086093973C95
:100E40007093983C8091993C90919A3C28EE33E0C5
:100E5000B9010E94080860938F3C7093903C809188
:100E6000993C90919A3CB9010E94080880938D3C6E
:100E700090938E3CC0930A0A789468E085E79CE3DF
:100E80000E948C038CE394E08093713C9093723CBD
:100E900084E694E08093733C9093743C82E00E94DB
:100EA000120161E070E083E00E94810061E070E087
:100EB00084E00E94810070E060E083E00E94CE0048
:100EC000812C34E0932EA12CB12CD4E04EE1D42E11
:100ED00050EAC52E6FE1762E70E0E72E70E0F72E17
:100EE00068EE73E080E090E00E946C01C09306061B
:100EF000C093080680910B0680FFFCCFA0911006DE
:100F0000B091110622E834E10E946C08A501940119
:100F10000E943E082093893C30938A3C40938B3C4E
:100F200050938C3CD0930606C093080680910B0624
:100F300080FFFCCFA0911006B091110626EA3EE09A
:100F40000E946C08A50194010E943E082093853CF4
:100F50003093863C4093873C5093883C81E00E94CC
:100F6000120161E070E080E090E00E946C01D0929C
:100F70000606809102068F7180930206C0920306D6
:100F80007092050680910206806480930206C093E9
:100F9000080680910B0680FFFCCF0091100610918F
:100FA000110682E00E94120180912111A09120116E
:100FB0009801281B310987FD3395B0E00E945D0838
:100FC00060587F4F8F4F9F4F672F782F892F99271A
:100FD0006093813C7093823C8093833C9093843CEB
:100FE000E114F10409F47CCF0E94000079CFE5E719
:100FF000FCE31282138288EE93E0A0E0B0E08483E9
:101000009583A683B7838EE191E9808391830895C8
:10101000AA1BBB1B51E107C0AA1FBB1FA617B7071E
:1010200010F0A61BB70B881F991F5A95A9F780953A
:101030009095BC01CD010895A1E21A2EAA1BBB1BFD
:10104000FD010DC0AA1FBB1FEE1FFF1FA217B30794
:10105000E407F50720F0A21BB30BE40BF50B661FAA
:10106000771F881F991F1A9469F76095709580956E
:1010700090959B01AC01BD01CF010895052E97FB12
:101080001EF400940E94550857FD07D00E941C08CA
:1010900007FC03D04EF40C945508509540953095BC
:1010A00021953F4F4F4F5F4F0895909580957095D4
:1010B00061957F4F8F4F9F4F0895A29FB001B39FBF
:1010C000C001A39F700D811D1124911DB29F700D51
:1010D000811D1124911D08950E945D08B7FF089598
:1010E000821B930B08950E945D08A59F900DB49FED
:1010F000900DA49F800D911D11240895EE0FFF1FE8
:101100000590F491E02D0994FB01DC0101900D9212
:0A1110000020E1F70895F894FFCFE6
:10111A00000000009E02790272025F0250024F0232
:10112A00D1038C037F031803E002C102B902EF0264
:0A113A00E7029C01A1016D6F69003E
:0E1144000102040810204080080080969800E8
:00000001FF
